:020000040800F2
:10000000901A002079AF0008B9AF0008BBAF000814
:10001000BDAF0008BFAF0008C1AF0008000000007E
:10002000000000000000000000000000C3AF000856
:10003000C5AF000800000000C7AF0008B383000888
:10004000CBAF0008CBAF0008CBAF0008CBAF0008A8
:10005000CBAF0008CBAF0008CBAF0008CBAF000898
:10006000CBAF0008CBAF0008CBAF0008CBAF000888
:10007000CBAF0008CBAF000829860008CBAF000843
:10008000CBAF0008CBAF0008CBAF0008CBAF000868
:10009000CBAF0008CBAF0008CBAF0008CBAF000858
:1000A000CBAF0008CBAF0008CBAF0008CBAF000848
:1000B000097F0008257F0008CBAF0008117A0008EF
:1000C00033760008217A0008197A0008CBAF0008BF
:1000D000CBAF0008CBAF000897880008CBAF000873
:1000E000916E0008CBAF0008CBAF0008DFF80CD052
:1000F0000BF0E6FC004800476D1A0008901A00203B
:10010000F0B504460E461546B4FBF5F038B1B4FB25
:10011000F5F72A4631463846FFF7F2FF0646B4FBAC
:10012000F5F005FB1040FBA1085C3070701CF0BDC1
:1001300070B505460C461646022E01DB242E00DD66
:100140000A26002D09DA2D2020703246611C6842F3
:10015000FFF7D6FF0021017006E03246214628460F
:10016000FFF7CEFF00210170204670BD10B5F3A04F
:1001700008F045FB10BD2DE9F04105460C462F4621
:10018000264630680AF0A3FF804631684246386848
:100190000AF0A5FFBDE8F08110B50446E9A008F01B
:1001A0002EFB012000F0AFFEEDA008F028FB0A2096
:1001B00008F02AF9002008F0E4F910BD10B5044653
:1001C000EBA008F01CFB002000F068FEEBA008F09C
:1001D00016FB0A2008F018F9002008F0D2F910BD2B
:1001E00010B50446E9A008F00AFB2021ED480AF00A
:1001F00043FF0020EC490870EC4908702046FFF7E7
:10020000DDFF10BD2DE9F041054628460AF05FFFED
:10021000C6B200F0DDFF0746EEB9E5A008F0EFFA40
:10022000002400BFE74850F8240000B90EE0012088
:10023000A040384204D0E34951F8240008F0DFFA26
:10024000202008F0C8FA601CC4B2EBE700BFC3A0CE
:1002500008F0D5FA5EE03246DBA128460AF03FFFFF
:10026000D0B9DBA008F0CBFA002400BFD54850F885
:10027000240000B90AE0D34951F8240008F0BFFA7D
:10028000202008F0A8FA601CC4B2EFE700BFB3A0BA
:1002900008F0B5FABDE8F0814FF0000828782D2865
:1002A00004D14FF001086D1C701EC6B2002400BFBF
:1002B000C44850F8240018B9CBA008F0A0FA27E0F1
:1002C000C04850F82410324628460AF008FFE0B92A
:1002D000B8F1000F08D0012101FA04F000F072FF1C
:1002E000C8A008F08CFA07E0012101FA04F000F040
:1002F000FDFDC7A008F083FAB24951F8240008F0C8
:100300007EFA96A008F07BFA02E0601CC4B2CFE748
:1003100000BF00BF00BFBDE770B505460024BFA009
:1003200008F06DFA00BF1BE004EB4401C14A52F82B
:10033000210008F064FA092008F04DFA04EB4401AA
:10034000BC4A02EB8101486808F059FA83A008F022
:1003500056FA00BF08F01CFA0028FBD0601CC4B29B
:100360000A2CE1D370BDFEB5054628460AF0AFFE63
:10037000C6B2082E22D1002405E0285D0AF03AFE1C
:100380002855601CC4B2082CF7DB002411E0295D5D
:10039000A9480AF093FE30B1295D2A19501C0AF0D1
:1003A0008DFE00B903E0A5A008F029FAFEBD601C8F
:1003B000C4B2082CEBDB284600F082FCA7A008F0B2
:1003C0001EFA002407E09C48015DAA48005D0DF874
:1003D0000010601CC4B2082CF5DB00200DF80400EE
:1003E000684608F00CFA5DA008F009FA00BFDDE7E6
:1003F00070B5064630460AF06AFEC5B27DB99EA0C9
:1004000008F0FDF99B4965394978491E9E4A52F822
:10041000210008F0F4F951A008F0F1F970BD2A4666
:1004200069A130460AF05BFEC8B998A008F0E7F968
:10043000002400BF944850F8240000B90AE0924913
:1004400051F8240008F0DBF9202008F0C4F9601C02
:10045000C4B2EFE700BF41A008F0D1F9DEE7002405
:1004600000BF894850F8240018B98DA008F0C7F9DA
:100470001AE0854850F824102A4630460AF02FFE2C
:1004800078B9601C7B49653948708BA008F0B7F9D2
:100490007D4951F8240008F0B2F930A008F0AFF916
:1004A00002E0601CC4B2DCE700BF00BFB6E77FB566
:1004B000044600252079052815D2DFE800F0030660
:1004C0000A0D1100A06805780DE0A06890F90050B1
:1004D00009E0A068058806E0A068B0F9005002E0D5
:1004E000A068056800BF00BF0A2269462846FFF7DA
:1004F0001FFE684608F083F97FBD0279052A07D2FE
:10050000DFE802F00304E2E3E70000BF836819704C
:10051000E2E0DEE0303132333435363738394142CB
:10052000434445464748494A4B4C4D4E4F50515223
:10053000535455565758595A000000000D0A2320AD
:1005400000000000526573657474696E6720746FF3
:100550002064656661756C74732E2E2E0D0A000082
:100560005265626F6F74696E672E2E2E0000000058
:10057000536176696E672E2E2E0000000D0A5265BB
:10058000626F6F74696E672E2E2E00000D0A4C6527
:100590006176696E6720434C49206D6F64652E2E2D
:1005A0002E0D0A0010040020000000206802002028
:1005B000456E61626C656420666561747572657311
:1005C0003A2000004C0000206C69737400000000A9
:1005D000417661696C61626C6520666561747572F3
:1005E00065733A2000000000496E76616C696420F2
:1005F00066656174757265206E616D652E2E2E0DB7
:100600000A00000044697361626C656420000000A8
:10061000456E61626C65642000000000417661698E
:100620006C61626C6520636F6D6D616E64733A0D11
:100630000A0000002CD80008B8DD00084D7573745E
:1006400020626520616E79206F72646572206F662A
:100650002041455452313233340D0A0043757272D1
:10066000656E742061737369676E6D656E743A2090
:10067000000000009504002043757272656E7420BE
:100680006D697865723A2000040000204176616946
:100690006C61626C65206D69786572733A20000048
:1006A000496E76616C6964206D6978657220747931
:1006B00070652E2E2E0D0A004D69786572207365C7
:1006C0007420746F2000000000BF0AB283681A8093
:1006D00002E08268116000BF00BF70472DE9F0475B
:1006E00081464FF00008002648460AF0F0FCC7B2E9
:1006F00027BBF6A008F083F800241CE004EB84007C
:10070000F84901EB800504EB8401F64A52F8210018
:1007100008F075F8F4A008F072F82846FFF7C7FE55
:10072000AFF2C81008F06BF800BF08F031F80028ED
:10073000FBD0601CC4B2412CE0D354E0EBA148468E
:100740000AF0A6FC5FEA00084DD008F10108781E07
:10075000C7B240460AF0DCFC064600243EE004EB4B
:100760008400E04901EB800504EB8401DD4A52F886
:1007700021000AF0ACFC824604EB8400D94A52F80E
:100780002010524648460AF0AAFC28BB04EB84001D
:10079000D44901EB8000C068B04218DC04EB84004F
:1007A00001EB80000069B04211DB31462846FFF7BB
:1007B000A4FE04EB8401CB4A52F8210008F01FF894
:1007C000CBA008F01CF82846FFF771FE02E0CBA092
:1007D00008F015F8BDE8F087601CC4B2412CBED308
:1007E000D0A008F00CF800BFF4E72DE9FF41074660
:1007F000D4A008F004F807F0F8FD4FF47A71B0FBCC
:10080000F1F60A2269463046FFF792FC684607F087
:10081000F6FFD0A007F0F3FF0A226946D24800781D
:10082000FFF786FC684607F0EAFFD0A007F0E7FF75
:100830000A226946D0480078FFF77AFC684607F03C
:10084000DEFFCEA007F0DBFF00F0B0FC0546CFA036
:1008500007F0D5FF002400BFD14850F8240000B9AC
:100860000EE00120A040284204D0CD4951F82400D8
:1008700007F0C5FF202007F0AEFF601CC4B2EBE715
:1008800000BF012000F07DFC48B1C6A007F0B7FF13
:10089000C649C74A127851F8220007F0B0FFAFF2FC
:1008A000443007F0ACFFC3A007F0A9FF0A22694655
:1008B000C4480088FFF73CFC684607F0A0FFC2A0D0
:1008C00007F09DFF07F077F906460A226946FFF711
:1008D0002FFC684607F093FFAFF2803007F08FFFE0
:1008E000BDE8FF8110B50446BBA007F088FF10BD2E
:1008F0002DE9FF41C448007838B90120C249087089
:10090000C2A007F07CFFFFF731FCCDE107F04AFF02
:100910000446092C01D03F2C69D100260027C94884
:1009200090F80080C84D0FE0C648007838B1C5483F
:100930000278C64829680AF0D2FB00B103E006B984
:100940002E462F4600BF0C35BF4878308542EBD38A
:100950004EB300BFBB4909783068405CB94A127891
:100960003968895C884200D01CE0B6490978306853
:10097000405C48B92021B34802780078401CB14B54
:100980001870B24881540DE0AE4909783068405C77
:10099000AE49AC4A12788854AA480078401CA9494C
:1009A0000870D7E700BFA748007808B1BE4211D051
:1009B000A7A007F024FF354606E0286807F01FFFD0
:1009C000092007F008FF0C35BD42F6D9FFF7CEFB32
:1009D0004FF0000806E09D4911F8080007F0FBFE03
:1009E00008F10108974800788045F4DB5BE1954801
:1009F000007830B9042C04D19448FFF7F1FBBDE82E
:100A0000FF810C2C05D194A007F0F9FEFFF7AEFB97
:100A100049E18C480078002836D00A2C01D00D2CF2
:100A200032D10025AFF2CC4007F0E9FE0020874923
:100A3000844A127888540846019000200290894820
:100A40000C230A228049009001A80AF0D9FA054631
:100A50004DB128680AF03BFB7C490844461C3046EF
:100A6000A968884702E080A007F0C9FE20217748E6
:100A70000AF002FB0020734908706348007800B94F
:100A8000BDE7FFF773FB0EE17F2C0FD16D480078B7
:100A9000D0B100216B480078401EC0B2694A107086
:100AA0006A4A115479A007F0AAFEFCE06548007874
:100AB000202809D2202C07DB7E2C05DC6148007839
:100AC00018B9202C01D1EFE0EDE0E1E0437572723E
:100AD000656E742073657474696E67733A200D0ACD
:100AE00000000000A4D80008203D20003D000000C8
:100AF0002073657420746F20000000004552523A44
:100B00002056616C75652061737369676E6D656EE3
:100B100074206F7574206F662072616E67650D0AB0
:100B2000000000004552523A20556E6B6E6F776E92
:100B3000207661726961626C65206E616D650D0A77
:100B40000000000053797374656D20557074696DF1
:100B5000653A2000207365636F6E64732C20566FB6
:100B60006C746167653A2000CA010020202A203099
:100B70002E3156202800000084010020532062619D
:100B80007474657279290D0A00000000446574656B
:100B9000637465642073656E736F72733A2000002E
:100BA0008000002041434348573A2000980000202D
:100BB0001E0200204379636C652054696D653A20FC
:100BC00000000000480100202C20493243204572DB
:100BD000726F72733A2000004166726F33322043A5
:100BE0004C492076657273696F6E20322E30204A30
:100BF000756E2031362032303132202F2031353A97
:100C000030383A3431000000680200200D0A456E89
:100C1000746572696E6720434C49204D6F64652C82
:100C200020747970652027657869742720746F2097
:100C300072657475726E2C206F72202768656C70F7
:100C4000270D0A00000000202CD800081004002006
:100C50000D1B5B4B000000001B5B324A1B5B313BF2
:100C600031480000770100084552523A20556E6B1A
:100C70006E6F776E20636F6D6D616E642C20747281
:100C800079202768656C70270000000008200800A4
:100C9000094801780078401C074A107007484454FE
:100CA000204607F098FD00BF07F065FD00287FF49F
:100CB0002DAE00BFA3E600000000002010040020BD
:100CC00070B5064634460CE02178FE480AF0F6F985
:100CD00005462DB1A01BC1B2FA482A1AFA48815420
:100CE000641C20780028EFD170BD70B5B422F7499C
:100CF000F54865380AF0A7F9002419E0F24865388C
:100D000090F8271004FB04F01938484300F6C4108B
:100D10006043ED49653991F82610484340F6C41107
:100D200090FBF1F000B2EA4921F81400601CC4B253
:100D3000062CE3DB002454E004EB8402E24B653B29
:100D400093F82830C3EB42000121002806DDDE4A7B
:100D5000653A92F82820C2F16402D1B2002803DA81
:100D6000D94A653A92F82810D74A653A92F829206C
:100D700000FB00F35A4301FB01F392FBF3F2D24B69
:100D8000653B93F82930C3F164031A4442430A23B4
:100D900092FBF3F2CC4B653B93F828300A2505FB18
:100DA000032212B2CB4B23F81420C74A653AB2F89B
:100DB0007E20C54B653BB3F87C30D21AC54B33F966
:100DC00014305A434FF47A7392FBF3F2BE4B653BF7
:100DD000B3F87C301A4412B2BE4B23F81420601CC6
:100DE000C4B20B2CA8DBB8486538B0F88800B0F561
:100DF0007F7F02DA4FF47F700DE0B3486538B0F8BA
:100E00008800B0F5FA6F02DD4FF4FA6003E0AE48F7
:100E10006538B0F88800AC496539A1F88800084603
:100E2000B0F88A00B0F57F7F02DA4FF47F700DE0F2
:100E3000A5486538B0F88A00B0F5FA6F02DD4FF4C6
:100E4000FA6003E0A0486538B0F88A009E49653929
:100E5000A1F88A000846B0F88C00B1F88E108842DC
:100E600004DA99486538B0F88E0012E09648653883
:100E7000B0F88C0094496539B1F89010884204DDCF
:100E800091486538B0F8900003E08F486538B0F8B5
:100E90008C008D496539A1F88C0070BD70B506468F
:100EA00009F045FE34200AF050F8884809F07AFE2F
:100EB000042810D100240BE0834A653A1159834A73
:100EC000A01809F00EFF0546042D00D002E0241DF5
:100ED000B42CF1D300BF09F036FEFFF706FF26B1B0
:100EE000012214210F2002F01FF870BD76496539E8
:100EF00049680143744A653A51607047002072495D
:100F000065394860704770B505467048067825B960
:100F100071480078864200D170BD6F4800786A49F8
:100F20006539087003204870FFF7E8FF0220FFF7DB
:100F3000DDFF28206449653908721E208874172057
:100F4000087728216048653841721E21C174172135
:100F50004177552181722D21017500218177102162
:100F6000C1720F2141750721C1770B210173002147
:100F7000817580F82010142141730821C1752D213D
:100F800080F821100E21817314210176502180F800
:100F9000221000214174C17680F825104621C173CA
:100FA0000A214176142180F82310282101745A2047
:100FB0004549653981F82600412081F82700002045
:100FC00081F82A0081F82B0081F82C00322081F86A
:100FD0002800002081F82900002406E000213A487A
:100FE000193820F81410601CC4B20B2CF6DB00205A
:100FF000354965398887002133486538C187002025
:1010000031496539C88500212F48653801864186F8
:1010100000202D496539488781F84000042081F877
:1010200041004FF49B70A1F844002A20A1F842002F
:101030002A4888646E2081F862002B2081F86300C2
:10104000212081F8640026A0FFF73AFE00201E4907
:10105000653981F86D0081F86E0081F86F0040F20B
:10106000DC50A1F8700040F24C40A1F8720040F250
:101070006C70A1F87400002081F876000A2081F8D5
:101080007700C82081F878004FF49660A1F87A00C4
:1010900040F27E40A1F87C0040F23A70A1F87E0058
:1010A0004FF47A70A1F880004FF4C870A1F8820064
:1010B0003220A1F88400012081F8860040F2DC5043
:1010C00014E00000B8DD00089504002000FC0008D2
:1010D000C8050020D4050020B0000020031414002F
:1010E000414554523132333400000000A1F88800E9
:1010F000A1F88A00A1F88C004FF47F70A1F88E004F
:101100004FF4FA60A1F890000A2081F8920081F86B
:101110009300012081F894004FF47F70A1F89600AD
:101120004FF4FA60A1F8980040F2DC50A1F89A0060
:101130004FF47F70A1F89C004FF4FA60A1F89E0074
:1011400040F2DC50A1F8A0004FF41650C1F8A40002
:10115000C820A1F8A800142081F8AA00012081F875
:10116000AB006420A1F8AC004FF49670A1F8AE007B
:101170004FF4E130C1F8B0000020FFF78FFE00BF50
:10118000CAE6014614480068084201D001207047B1
:101190000020FCE71049096801430F4A11607047BD
:1011A0000D49096881430C4A116070470A4800687C
:1011B0007047014609484068084201D00120704745
:1011C0000020FCE7054949688143044A51607047A3
:1011D0000248406870470000AC0000203004002046
:1011E00070B5FC4800880AF0FCF90546FA4909F098
:1011F000F4FF04460AF018FA00B2F8490880042007
:10120000FFF7BFFF08B103F0D7FB70BD2DE9F04732
:1012100080468946494640460BF0CEFA82460AF09F
:101220004FFA0646EE4AEF4B0AF0F3F804460AF08E
:1012300028FA00B2BDE8F0872DE9FE4304460D46CA
:1012400094E807008DE807000199686809F0C5FF78
:1012500007460099286809F0C0FF8046394609F022
:1012600064FF0646A16809F0B5FFA0600199A8686F
:1012700009F0B3FF07460299286809F0AEFF8046DF
:10128000394609F0A4FF0646216809F04EFF2060A8
:101290000099A86809F0A1FF07460299686809F05B
:1012A0009CFF8046394609F040FF0646616809F018
:1012B0003CFF6060BDE8FE832DE9FF5F4FF0000951
:1012C00007F07DF88246C8490968AAEB01000AF0D8
:1012D0009EF90646C54AC64B0AF09BF804460AF03A
:1012E00005FA8346C048C0F800A0C84662E0C1497C
:1012F00031F918000AF06CF90446594609F06DFFFF
:1013000001A941F82800BC4890F8410000283CDDC4
:10131000B94991F841000AF064F9014600904FF094
:101320007E5009F090FF0646B44931F918000AF0E2
:101330004FF90746314609F050FF0446AE4991F88F
:1013400041000AF04EF9014600904FF07E5009F03E
:101350007AFF07464FF07E5109F03CFF0646A84849
:1013600050F82810304609F038FF0546214609F0AC
:10137000DCFEA34941F8280051F828000AF054F98E
:1013800000B2A04921F8180005E09C4830F8180088
:101390009C4921F818009B4830F91800994931F907
:1013A000181000FB01990420FFF7EBFE08F1010083
:1013B00000F0FF08B8F1030F99DB642009FB00F08F
:1013C00084490988494390FBF1F901A98E48FFF748
:1013D00033FF0420FFF7D5FE18B101A98B48FFF7B2
:1013E0002BFF8848B0F90000002803DD8548B0F9DC
:1013F000000003E08348B0F9000040427749B1F9AA
:10140000001088421ADA7F48B0F90200002803DD94
:101410007C48B0F9020003E07A48B0F9020040428B
:101420006E49B1F90010884208DA7648B0F9040034
:10143000002803DD01207649087002E0002074498D
:101440000870B9F1240F02DDB9F1C40F02DB704856
:101450000078B8B34FF0000831E06749B1F84400B4
:101460000AF0BFF807464FF07E5109F05EFE0646CF
:1014700031464FF07E5009F0E6FE0546614931F9EC
:1014800018000AF0A5F85C490090B1F844000AF091
:10149000A8F807465C4850F82810384609F09DFE29
:1014A0000646009909F041FE0446294609F095FEDA
:1014B000554941F8280008F1010000F0FF08B8F193
:1014C000030FCADB0420FFF75CFE00B34FF00008F7
:1014D0001AE0504931F918000AF07AF805464B49EC
:1014E00051F828004C4909F078FE0646294609F0D3
:1014F0001CFE0446494909F070FE444941F82800A1
:1015000008F1010000F0FF08B8F1030FE1DB3E4AEB
:1015100091681068FFF77AFE414908803A4A91685D
:101520005068FFF773FE3E4948800420FFF729FE0C
:1015300000284DD0354A9168334A506809F04DFE75
:101540000646324A5168304A906809F046FE07461E
:10155000314609F03CFE04462C4A11682A4A90683C
:1015600009F03BFE0646294A9168274A106809F0AF
:1015700034FE0746314609F02AFE05462146FFF7AC
:1015800045FE284908800846B0F900000AF020F816
:10159000054625480168284609F0C7FD04460AF0BB
:1015A00043F800B21F4908800846B0F900000A213C
:1015B00090FBF1F000B21B4908800846B0F900002A
:1015C000B42833DD08460088A0F5B47000B2088066
:1015D00039E000001C0200207593D83EB4000020C2
:1015E0003B597E90A9E78140E80000209B36CF4719
:1015F0008A48323EFC000020300400200201002016
:10160000FC04002008010020E4040020F004002075
:10161000D00000200E010020000048435E06A33BDE
:10162000CC00002064020020BC000020E148B0F99A
:10163000000010F1B40F06DADE48008800F5B4703F
:1016400000B2DC490880BDE8FF9F1FB50120FFF70D
:1016500098FD18B103F08EF8FFF72EFE03F08DF918
:10166000002407E0D44830F8140002A921F814003F
:10167000601CC4B2032CF5DB0120FFF782FD18B912
:101680000020CE4921F8140006F099FECC490860EC
:1016900001F074FC06F093FEC9490968401A40F253
:1016A0008A21884206D9C7480088401C00B2C54933
:1016B000088009E000BF06F082FEC1490968401AAF
:1016C00040F28A218842F6D303F057F9002429E03A
:1016D000B94830F8140002A931F81410084400B2D7
:1016E0002DF814003DF91400B74931F914100844DD
:1016F000401C032190FBF1F000B2B44921F8140022
:101700003DF9140000EBD0714910AF4A22F81410D3
:101710000120FFF736FD18B90020A84921F8140070
:10172000601CC4B2032CD3DB8020FFF742FD78B3EA
:10173000A748007858B9A748806C000CA4490870E5
:10174000A448806C000A4870A248806C887000240D
:101750001BE09E4830F914109F4830F914209C4833
:10176000005D401E02FB0010401C9949095D90FB82
:10177000F1F000B2954921F81400084630F8140041
:10178000954921F81400601CC4B2032CE1DB17E07A
:10179000FFE790484078012812D18C48B0F9041036
:1017A0008E48B0F9000001EB4000401C032190FB83
:1017B000F1F000B285498880084680888749088012
:1017C0001FBD30B5864B1B68864C2468A34200D2EF
:1017D00030BD834B1B6846F2A8142344814C236020
:1017E000814B824C94F9004033F91420804B1B68E4
:1017F0000A2493FBF4F31BB27B4C7C4D95F900500B
:1018000024F815302346794C94F9004033F914300C
:10181000784C24682344774C2360744B93F9003050
:101820001433282493FBF4F504FB1533D9B26E4B23
:1018300033F911306F4C2468E31A6E4C23606A4B05
:1018400033F911306C4C246823446B4C23602346DD
:101850001B689B1A2360654B1B785B1C5BB2634C57
:101860002370234693F90030282B01DB00232370DB
:101870000023624C2380574BDB7F5E4C24685E4D17
:101880002D68641B6343282493FBF4F05B4B1B8897
:101890001B1A1BB2594C2380564B1B6803EB830366
:1018A0005B00142493FBF4F3554C2360554B1B68E9
:1018B0002468181B002801DD034600E043420A2B80
:1018C00011DA4E4BB3F90030002B03DD4B4BB3F96B
:1018D000003003E0494BB3F900305B420A2B02DAD7
:1018E0000023464C23803B4BDC7ADB7A5B005B4277
:1018F000834204DD374BDB7A5B005B4209E0354B0A
:10190000DB7A5B00834203DA324BDB7A5B0000E078
:1019100003465C43642394FBF3F3384C248823444C
:101920001BB2364C23802346B3F9003013F1960FD7
:1019300002DA6FF0950309E0304BB3F90030962BD3
:1019400001DD962302E02D4BB3F900302B4C2380B0
:10195000204B5B7D4343322493FBF4F32A4C2488D1
:1019600023441BB2284C23802346B3F90030274C74
:10197000A34201DA23460BE0234BB3F9003047F2D0
:101980003054A34201DD234602E01F4BB3F900307F
:101990001D4C23802346B3F900304FF4FA7493FBB7
:1019A000F4F0164B1B8803441BB2144C238000BF79
:1019B0000EE7000064020020FC000020020100206D
:1019C000D80000204E010020D2000020C0000020DE
:1019D000DE00002030040020E2000020DC000020B7
:1019E00040010020EC00002008050020F00000204D
:1019F00014010020F4000020F8000020B6000020B0
:101A00001C01002020010020B8000020D08AFFFF28
:101A100070B56A48007808B1022000E00020054651
:101A200006F0A5FC401BC6B21020654908602C4694
:101A300007E06448B0F87E10204606F089FC601C80
:101A4000C4B2B442F5DB40F6B83006F0DDFC2C46FB
:101A500006E04FF47A71204606F07AFC601CC4B2AE
:101A6000B442F6DB042006F061FD70BD1CB506F043
:101A7000D7FCFFF73AF90020FFF745FA5149D1F8B2
:101A8000B00003F042FA0720FFF784FB00F0AAF849
:101A90000120FFF78EFB8DF801000820FFF789FB7E
:101AA00080F001008DF800004FF40060FFF781FB2B
:101AB00080F001008DF800004048007808B1012056
:101AC00000E000208DF802003E48B0F88200ADF83A
:101AD00004003C48B0F88400ADF80600684606F003
:101AE000E7FA08B1FFF794FF37483849086010203B
:101AF000334908600820091F086000241DE03048B1
:101B00000838006880F010002D4908390860084640
:101B1000006880F008000860192006F075FC4FF49A
:101B200080502B490860192006F06EFC4FF480505D
:101B30002749091F0860601CC4B20A2CDFDB08209B
:101B40001F49091F08601020086002F0F1FBFFF731
:101B500047FB0220FFF72DFB08B102F0B0FC4FF469
:101B60000060FFF726FB28B104F0FDFF1948174974
:101B7000086017E00820FFF71CFB28B104F09DFD6A
:101B80001548124908600DE00120FFF712FB48B12B
:101B90004FF40070FFF70DFB20B10A49D1F8A40003
:101BA00004F0B7FC06F00BFC0C4908604FF47A70A7
:101BB0000B49088001E001F0EEFCFCE72501002064
:101BC000140C014030040020A734000868010020F4
:101BD00014080140DF6B0008F16600084401002092
:101BE0001802002010B5FB48407804280BD0F948B3
:101BF0004078012807D0F7484078052803D0F548F9
:101C00004078082802D10120F34908702020FFF70E
:101C1000D0FA18B94020FFF7CCFA10B10120EE49F4
:101C20000870EC48407812282DD2DFE800F02C151F
:101C3000191A110920210D1B222627282C2C2C1CB7
:101C40000020E64908701EE00120E44908701AE00F
:101C50000220E249087016E00320E049087012E013
:101C600000BF00BF00BF0420DC4908700BE000BFCC
:101C700000BF0620D949087005E000BF00BF08205A
:101C8000D649087000BF00BF10BD10B5D24800781B
:101C900000B910BDCF484078012803D0CD48407826
:101CA000042810D1CE48008981B2002006F050FBF4
:101CB000C8484078042812D1C948408981B201201F
:101CC00006F046FB0BE0C648008881B2002006F013
:101CD0003FFBC348408881B2012006F039FB00BFBA
:101CE000D7E770B50025BC48007800B10225002474
:101CF00009E0BC4A32F8142091B26219D0B206F061
:101D000027FB601CC4B2B54800788442F1DB70BD8B
:101D100070B50546002404E0B24820F81450601C59
:101D2000C4B2AE4800788442F6DBFFF7DAFF70BD3C
:101D3000F8B5AA48007803284DDDAB48B0F9041087
:101D4000AA48B0F90400002803DDA848B0F904004F
:101D500003E0A648B0F9040040426FF06302101A95
:101D6000814210DAA148B0F90400002803DD9F4841
:101D7000B0F9040003E09D48B0F9040040426FF060
:101D80006301081A24E09848B0F904109748B0F9A4
:101D90000400002803DD9548B0F9040003E09348EF
:101DA000B0F904004042643081420EDD8F48B0F942
:101DB0000400002803DD8D48B0F9040003E08B48DF
:101DC000B0F904004042643002E08748B0F90400F2
:101DD00000B2854988807F48407812287ED2DFE8AB
:101DE00010F07D00920007014B011200F205D501B1
:101DF000630295069A01F3028D032A04E8047D002C
:101E00007D007D00AE057948C18877480088084488
:101E100000B2744908807548C088734909884942EE
:101E2000084400B26F4948806A4890F986006E49BC
:101E3000B1F90410484300F2DC506B49B1F90210CB
:101E40000844B0F57F7F02DA4FF47F701FE06148ED
:101E500090F986006449B1F90410484300F2DC505F
:101E60006149B1F902100844B0F5FA6F02DD4FF490
:101E7000FA600CE0574890F986005B49B1F904100C
:101E8000484300F2DC505849B1F90210084400B24E
:101E9000534908814F4890F986005349B1F904101D
:101EA000484300F2DC505049B1F90210401AB0F535
:101EB0007F7F02DA4FF47F7021E0464890F9860078
:101EC0004949B1F90410484300F2DC504649B1F9E0
:101ED0000210401AB0F5FA6F04DD00E073E24FF42F
:101EE000FA600CE03B4890F986003F49B1F90410D4
:101EF000484300F2DC503C49B1F90210401A00B2EC
:101F0000374948815FE23848B0F902008000032178
:101F100090FBF1F03549C988084400B23149088086
:101F20003148B0F9020040004042032190FBF1F03B
:101F30002E49C9882C4A128852421144084400B2E2
:101F4000284948802848B0F9020040004042032157
:101F500090FBF1F12548C2882348008810440844CA
:101F600000B2204988801B48B0F88C00194991F9CB
:101F700086101D4AB2F9042001FB02001549B1F890
:101F80008E10884203DA1348B0F88E001EE0114824
:101F9000B0F88C000F4991F98610134AB2F9042069
:101FA00001FB02000B49B1F89010884203DD09489B
:101FB000B0F890000AE00748B0F88C00054991F9A4
:101FC0008610094AB2F9042001FB020000B204495C
:101FD000088197E73004002025010020240100201B
:101FE0002601002058050020DE010020CC01002041
:101FF000FE48C0880146FE4840880144FD4890F9EB
:102000008600FB4A928850434042084400B2FA4995
:102010000880F648C088F6490988494208440146C4
:10202000F44890F98600F24A928800FB021000B250
:10203000F1494880ED48C188ED48008808440146D0
:10204000EC4890F98600EA4A928800FB021000B240
:10205000E9498880E548C088E54949884942014402
:10206000E44890F98600E24A92885043404208448E
:1020700000B2E149C88045E7DC48C088DC490988EE
:1020800049420144DA4840880144DA4890F9860020
:10209000D74A928850434042084400B2D64908804B
:1020A000D248C088D249098849420844D049498861
:1020B00049420144CF4890F98600CD4A928800FBFE
:1020C000021000B2CC494880C848C188C84800887E
:1020D0000144C74840880144C64890F98600C44A74
:1020E000928800FB021000B2C3498880BF48C188B3
:1020F000BF4800880844BE49498849420144BD4858
:1021000090F98600BA4A928850434042084400B28F
:10211000B949C880F6E6B548C0880146B448408849
:102120000144B44890F98600B14A92885043404235
:10213000084400B2B0490880AC48C088AC4909885E
:1021400049420844AA4949884942084400B2AA4978
:102150004880A648C0880146A54840880144A54853
:1021600090F98600A24A928800FB021000B2A249B0
:1021700088809E48C1889E48008808449C494988B8
:102180004942084400B29C49C880BBE69848B0F96F
:1021900002008000032190FBF1F09449C9880144BA
:1021A000944890F98600924A928800FB021000B28F
:1021B000914908808E48B0F9020040004042032156
:1021C00090FBF1F18948C088894A12885242104434
:1021D0000144884890F98600854A928850434042DD
:1021E000084400B2844948808148B0F902004000A8
:1021F0004042032190FBF1F17C48C2887C48008872
:10220000104401447B4890F98600794A92885043F3
:102210004042084400B2784988807548B0F902000D
:102220008000032190FBF1F07049C9880144714896
:1022300090F986006E4A928850434042084400B2AA
:102240006D49C8806A48B0F902004000404203214D
:1022500090FBF1F06549C988654A128852421144E1
:102260000144644890F98600614A928800FB02109C
:1022700000B2614908815E48B0F902004000404266
:10228000032190FBF1F15948C28859480088104455
:102290000144584890F98600554A928800FB021084
:1022A00000B2554948812DE6514AB2F90020514209
:1022B00001EBD1724D4BDB8803EB62034C4AB2F960
:1022C000020000EBD07203EB62034A4A92F98620C7
:1022D000474EB68802FB063212B2474B1A80444A78
:1022E000B2F90020514201EBD172404BDB8803EB85
:1022F00062023F4BB3F90230584200EBD07302EB5D
:1023000063033C4A92F98620394EB68872435242A2
:102310001A4412B2384B5A80354AB2F9001001EB18
:10232000D172324BDB8803EB6203314AB2F902000F
:1023300000EBD07203EB62032E4A92F986202C4EFA
:10234000B68802FB063212B22B4B9A80284AB2F9A9
:10235000001001EBD172254BDB8803EB6202244BAA
:10236000B3F90230584200EBD07302EB6303214A09
:1023700092F986201E4EB688724352421A4412B217
:102380001D4BDA801948C0881949498849420144DF
:10239000184890F98600164A928800FB021000B295
:1023A000194608811148C0880146114840880144F7
:1023B000104890F986000E4A9288504340420844E3
:1023C00000B219464881B9E2094AB2F900205142E7
:1023D00001EBD172054BDB8803EB6203044AB2F9CF
:1023E000020000EBD07203EB620307E0CC01002097
:1023F000DE0100203004002058050020FE4A92F93A
:102400008620FE4EB68802FB063212B2FC4B1A80C2
:10241000FA4AB2F90020514201EBD172F94BDB8844
:1024200003EB6202F54BB3F90230584200EBD07374
:1024300002EB6303F04A92F98620F04EB68802FB65
:10244000063212B2EE4B5A80EC4AB2F9001001EBA0
:10245000D172EC4BDB8803EB6203E84AB2F902006D
:1024600000EBD07203EB6203E34A92F98620E34E5D
:10247000B688724352421A4412B2E14B9A80DF4A44
:10248000B2F9001001EBD172DE4BDB8803EB620284
:10249000DA4BB3F90230584200EBD07302EB63031E
:1024A000D54A92F98620D54EB688724352421A44D4
:1024B00012B2D34BDA80D348C088D0490988494248
:1024C00008440146CC4890F98600CC4A9288504393
:1024D0004042084400B219460881CA48C188C7482A
:1024E000008808440146C44890F98600C34A92888F
:1024F00000FB021000B219464881A9E3C148C08818
:10250000BE49098849420144BC4840880144BA4850
:1025100090F98600B94A928850434042084400B27C
:10252000B7490880B748C088B44909884942084477
:10253000B249498849420144AF4890F98600AF4A00
:10254000928800FB021000B2AD494880AD48C188B6
:10255000AA4800880144A94840880144A64890F947
:102560008600A64A928800FB021000B2A449888027
:10257000A448C188A14800880844A0494988494224
:1025800001449D4890F986009C4A928850434042FD
:10259000084400B29A49C8809A48C0889749098877
:1025A00049420144954840880144934890F9860087
:1025B000924A928800FB021000B29149088191482A
:1025C000C0888E490988494208448C494988494253
:1025D0000144894890F98600884A928850434042D5
:1025E000084400B2864948818648C18883480088EB
:1025F00001448248408801447F4890F986007F4A20
:10260000928850434042084400B27D4988817D4809
:10261000C1887A4800880844784949884942014479
:10262000754890F98600754A928800FB021000B246
:102630007349C8810CE37148B0F90000C0EBC000D9
:102640000A2190FBF1F06F49C98808446B49B1F940
:102650000210A1EBC1010A2291FBF2F1014466488C
:1026600090F98600654A928800FB021000B2644926
:1026700008806248B0F90000A0EBC0000A2190FB7E
:10268000F1F06049C98808445C49B1F90210A1EB36
:10269000C1010A2291FBF2F10144574890F98600EA
:1026A000564A928800FB021000B2554948805348B0
:1026B000B0F90000A0EBC0000A2190FBF1F05149F5
:1026C000C98808444D49B1F90210C1EBC1010A2281
:1026D00091FBF2F10144484890F98600474A9288FC
:1026E00000FB021000B2464988804448B0F900005F
:1026F000C0EBC0000A2190FBF1F04249C9880844B0
:102700003E49B1F90210C1EBC1010A2291FBF2F17D
:102710000144394890F98600384A928800FB02103B
:1027200000B23749C8803748C0883449498849428F
:102730000144314890F98600304A92885043404223
:10274000084400B22E4908812E48C0882B490988C8
:10275000494208440146284890F98600274A928851
:1027600050434042084400B2254948812548C0886A
:1027700001462248408801441F4890F986001F4ABC
:10278000928850434042084400B21D4988811D4848
:10279000C1881A48008808440146174890F9860005
:1027A000164A928850434042084400B21449C881F6
:1027B0004EE21449CA881149098811440F4AB2F9F6
:1027C0000220504200EBD07201EB62020A4991F9FB
:1027D00086100A4B9B8801FB032109B2084A11802D
:1027E0000649B1F90010484200EBD071054AD28881
:1027F00002EB6101014A07E030040020DE01002005
:1028000058050020CC010020528852420A44FC495D
:1028100091F98610FB4B9B8801FB032109B2FA4A10
:102820005180FA49C988F74A128852420A44F54948
:10283000B1F9020000EBD07102EB6102F04991F9AD
:102840008610F04B9B8801FB032109B2EE4A918070
:10285000EC49B1F9000000EBD071EC4AD28802EBF0
:102860006102E84949880A44E54991F98610E54B37
:102870009B8801FB032109B2E34AD180E149B1F908
:10288000000000EBD071E14AD28802EB6101DD4A21
:10289000528852420A44DA4991F98610D94B9B88F2
:1028A00059434942114409B2D74A1181D749C988CD
:1028B000D44A128852421144D24AB2F902205042FC
:1028C00000EBD07201EB6202CD4991F98610CD4B3D
:1028D0009B8859434942114409B2CB4A5181C949A5
:1028E000B1F90010484200EBD071C84AD28802EB1F
:1028F0006102C44949880A44C14991F98610C14B13
:102900009B8859434942114409B2BF4A9181BF494A
:10291000CA88BC4909880A44BA49B1F9020000EBE7
:10292000D07102EB6102B64991F98610B54B9B88D4
:1029300059434942114409B2B34AD18188E1B349AC
:10294000C9880A46AF4949880A44AD4991F98610B9
:10295000AC4BB3F904305943484200EBD07102EB61
:10296000610109B2A84A1180A848C088A549098810
:1029700049420844A34949884942084400B21146E3
:102980004880A249C9880A469E4949880A449C4908
:1029900091F986109B4BB3F9043001FB03F000EB77
:1029A000D07102EB610109B2974A91809748C188C2
:1029B000944800880844934949884942084400B231
:1029C0001146C88044E18E4B93F99230904EB6F98F
:1029D000026003FB06F2D31702EB1373884EB6F8BE
:1029E0009A6006EB2313894EB6F902603344844E95
:1029F000B6F89660B34203DA814BB3F8963030E014
:102A00007F4B93F99230824EB6F9026003FB06F1D8
:102A1000CB1701EB13737A4EB6F89A6006EB2313CB
:102A20007A4EB6F902603344754EB6F89860B342F8
:102A300003DD734BB3F8983013E0714B93F9923088
:102A4000734EB6F9026003FB06F0C31700EB137375
:102A50006B4EB6F89A6006EB23136C4EB6F9026023
:102A600033441BB26B4E3380654B93F99330684E01
:102A7000B6F9006003FB06F2D31702EB1373604E46
:102A8000B6F8A06006EB2313604EB6F9006033443D
:102A90005B4EB6F89C60B34203DA594BB3F89C30F6
:102AA00030E0574B93F99330594EB6F9006003FB71
:102AB00006F1CB1701EB1373514EB6F8A06006EB8D
:102AC0002313524EB6F9006033444D4EB6F89E6063
:102AD000B34203DD4A4BB3F89E3013E0484B93F901
:102AE00093304B4EB6F9006003FB06F0C31700EBC2
:102AF0001373434EB6F8A06006EB2313434EB6F9AA
:102B0000006033441BB2434E7380A1E03F48C0884D
:102B10003D4908804048007848B34048B0F9020079
:102B20003749B1F87010401A3C49B1F90010344AE5
:102B3000B2F87020891A012202FB010000B2354967
:102B400008803648B0F902002D49B1F87010401ADB
:102B500040423249B1F90010294AB2F87020891A6E
:102B6000012202FB010000B22A49488017E02548F3
:102B7000B0F902002349B1F90010012202FB010063
:102B800000B2244908801F48B0F9020040421D49A4
:102B9000B1F9001002FB010000B21E4948801D4837
:102BA000B0F900001649B1F888100844B0F57F7FED
:102BB00002DA4FF47F7013E01648B0F900001049B4
:102BC000B1F888100844B0F5FA6F02DD4FF4FA60EE
:102BD00006E01048B0F900000949B1F8881008442F
:102BE00000B20C4908800846B0F902000449B1F867
:102BF0008A100844B0F57F7F12DA4FF47F7023E02B
:102C000030040020DE01002058050020CC01002007
:102C1000CC000020260100204D010020560100209C
:102C2000B648B0F90200B649B1F88A100844B0F5C8
:102C3000FA6F02DD4FF4FA6006E0B048B0F9020026
:102C4000AF49B1F88A10084400B2AC49488000BFCF
:102C500000BF2020FEF7ADFA002876D000200090BB
:102C6000A74890F8940010F0010F05D1A44890F8FF
:102C7000940010F0020F08D0A2488089A049B1F852
:102C80007010401A80B2ADF800009D4890F8940092
:102C900010F0040F08D19B48C0899949B1F8701011
:102CA000401A80B2ADF802009548B0F89A00BDF81D
:102CB0000010084400B2914908809148B0F8A00083
:102CC000BDF80210084400B28C4948808E48C07894
:102CD00018B38B4991F992108C4AB2F9022001FB8A
:102CE00002F0C11700EB1171844A128802EB211126
:102CF00009B2824A1180824991F99310834AB2F94C
:102D0000002001FB02F0C11700EB11717B4A5288D1
:102D100002EB211109B2794A51807848B0F90000DC
:102D20007749B1F89610884203DA7548B0F89600F2
:102D30000FE07248B0F900007149B1F8981088426C
:102D400004DD6F48B0F8980003E024E06B48B0F968
:102D5000000000B2694908800846B0F902006849DD
:102D6000B1F89C10884203DA6548B0F89C000EE088
:102D70006248B0F902006249B1F89E10884203DD52
:102D80005F48B0F89E0002E05C48B0F9020000B273
:102D90005A49488000BF4020FEF70BFAE8B35C4870
:102DA0000078012833D15B48007858B94FF4FA60B5
:102DB0005249888001205749087005F016FB564992
:102DC000086024E053480078012813D105F00DFB7A
:102DD00051490968401AB0F57A7F18D94FF47F70CD
:102DE0004649888002204B49087005F0FEFA4A499E
:102DF00008600CE005F0F9FA47490968401AB0F597
:102E00007A7F04D9002043490870414908703E4840
:102E1000007910B101203E4908704048B0F90050D7
:102E2000012409E03D4830F91400A84202DD3B4886
:102E300030F91450601CC4B2394800788442F1DB88
:102E4000002456E02E48B0F87E00A8420BDA334842
:102E500030F814002A49B1F87E10691A401A00B2FD
:102E60002E4921F814002D4830F914002449B1F8F6
:102E70007C10884203DA2248B0F87C000EE0274834
:102E800030F914001E49B1F87E10884203DD1C4859
:102E9000B0F87E0002E0214830F9140000B21F496A
:102EA00021F814001748B0F906001549B1F872105E
:102EB000884212DA1020FEF77CF938B91048B0F8D1
:102EC0007C0000B2154921F8140006E00C48B0F867
:102ED000800000B2114921F814001248007830B97E
:102EE0000748B0F8800000B20C4921F81400601CBB
:102EF000C4B20B4800788442A4DBF8BD2601002050
:102F00003004002056010020EA050020CC000020FB
:102F1000360100203701002038010020580500202C
:102F200024010020500100202DE9F04104460D4607
:102F3000164600271EE04FF0000814E0FD48006828
:102F400080F00800FB4908608814FB4908602846A7
:102F500005F05AFA4FF48050F749091F086008F14C
:102F6000010000F0FF08A045E8DB3C2005F04CFA2A
:102F7000781CC7B2B742DEDBBDE8F0812DE9F04F27
:102F80008BB04FF00008ED48B0F9060040F2DC517C
:102F9000884201DA64271CE0E848B0F90600B0F581
:102FA000FA6F10DAE64890F82C00E449B1F90610FF
:102FB000A1F2DC5148434FF4FA7190FBF1F0C0F1FB
:102FC0006400C7B205E0DE4890F82C00C0F1640050
:102FD000C7B20024BFE0D94830F91400D849B1F88D
:102FE0007010401A002807DDD44830F91400D44985
:102FF000B1F87010401A06E0D148B0F87000CF491F
:1030000031F91410401AB0F5FA7F18DACB4830F9CC
:103010001400CB49B1F87010401A002807DDC748EA
:1030200030F91400C649B1F87010401A09E0C448DC
:10303000B0F87000C14931F91410401A01E04FF4A2
:10304000FA7085B2022C40D0BD4890F86D0058B19E
:10305000BB4890F86D00A84205DAB94890F86D00B9
:10306000281A85B200E00025642095FBF0F086B2B6
:10307000B449701C31F9100031F91610401A06EBF2
:10308000C60101EB0611A5EB81014843642190FBC9
:10309000F1F0AC4931F81610084400B2AA4921F801
:1030A0001400A74890F82A0068434FF4FA7190FB87
:1030B000F1F0C0F1640000F0FF0A0AFB07F06421A0
:1030C00090FBF1F000F0FF0A1FE09D4890F86E00C1
:1030D00058B19B4890F86E00A84205DA984890F8DD
:1030E0006E00281A85B200E0002528B2964921F822
:1030F0001400934890F82B0068434FF4FA7190FB4A
:10310000F1F0C0F1640000F0FF0A8D480830005D66
:1031100000FB0AF0642190FBF1F08C4908558848C7
:103120001C30005D00FB0AF0642190FBF1F088493F
:103130000855824830F914008149B1F8701088426E
:1031400007DA814830F81400404200B27E4921F885
:103150001400601CC4B2032CFFF63DAF7748B0F9F1
:1031600006007749B1F87210884203DA7448B0F863
:1031700072000BE07148B0F90600B0F5FA6F02DD9D
:103180004FF4FA6002E06D48B0F9060085B26C4871
:10319000B0F87200281A4FF47A7148436849B1F8C0
:1031A0007210C1F5FA61B0FBF1F085B2642095FBB5
:1031B000F0F086B26749701C31F9100031F9161031
:1031C000401A06EBC60101EB0611A5EB810148434D
:1031D000642190FBF1F05F4931F81610084400B209
:1031E0005949C8805C48007800285DD05B49B1F936
:1031F00000105B4AB2F90020881A08F0F7F9594A22
:10320000594BCDE9000108F004F90022574BCDE9F4
:10321000020108F06EF9CDE9040108F067FA09909F
:10322000099809F0F3FB089009980AF0FDF9079056
:103230004549B1F9000008F0CBF90390079907F070
:10324000CCFF41490590B1F9020008F0C1F90390A3
:10325000089907F0C2FF0490059907F066FF8346BE
:1032600008F0E2F900B206903749B1F9020008F01F
:10327000AFF90390079907F0B0FF33490490B1F913
:10328000000008F0A5F90390089907F0A6FF83460F
:10329000049907F09CFF059008F0C6F900B22A498E
:1032A00008800698488000BF0220FDF782FF0028B2
:1032B0003ED02F480078401CC0B22D49087006212E
:1032C00090FBF1F201FB120060BB03F018FD2949ED
:1032D00091F800B00978491C264A11704FEAEB7149
:1032E0000BEB5171C910ABEBC101234A22F811005D
:1032F0004FF0000909E0204830F8190040441FFA57
:1033000080F809F1010000F0FF09B9F1080FF2DBC4
:10331000C3464FEAE87108EB5171C81001F0B1F8EB
:10332000164908701648807A18B1072015490870A8
:1033300044E029E00C0C0140140801405601002033
:1033400030040020C8050020CC010020D40100205A
:10335000DA010020D40500204C0100206402002086
:10336000C8010020182D4454FB210940008066400C
:103370008C0100208E01002068050020CA01002079
:10338000EA0500208D010020F6480078F6490988FA
:10339000884206DCF54890F86400F24909788842D2
:1033A00009DD0020F2490870F24908704FF480509E
:1033B000F149086002E00420ED490870EC4800780B
:1033C00003F0F6F9ED480088002803DD0120FDF741
:1033D000D8FE18B9EA480088002806DDE9480068E8
:1033E00080F00800E74908600EE0E748007801280F
:1033F00003D10820E349091D0860E448007818B1AA
:103400000820E049083108604FF48070FDF7D1FED4
:1034100070B1DF480068DF490968884208D9DC4894
:1034200000684CF250310844DA49086005F068FA47
:10343000D7480068D8490968884215D9D748007824
:1034400078B90020D0490870CE48006880F00800A4
:10345000CC490860CE480068D1490844CE4908608C
:1034600002E00120C849087001F055FD1020FDF769
:1034700088FEA8B1C6480068CA49096888420FD9C1
:10348000C948007805280BDBC1480068C7490844D3
:10349000C4490860BB48006880F01000B949086062
:1034A0000BB0BDE8F08F70B50546B0496531485D99
:1034B00004F057FF044640F2EE20844203DB40F65E
:1034C000CA00844202DDA948B0F87040204670BDB1
:1034D00070B5B7480078401CB5490870002457E023
:1034E0002046B4490968884700B2B1490E78F117FF
:1034F00006EB91718910A6EB8101AF4A02EBC40281
:1035000022F811000020AD4921F8140000250EE03A
:10351000A94800EBC40030F81500A84931F8141090
:10352000084400B2A54921F81400681CC5B2042D56
:10353000EEDBA24931F91410881CC11700EB917120
:1035400089109E4A22F81410104630F914109C4835
:1035500030F91400C01E814207DA104630F814001A
:10356000801C00B2964921F81400944830F91410D8
:10357000934830F91400C01C814207DD8F4830F8B1
:103580001400801E00B28E4921F81400601CC4B2E1
:10359000082CA5DB70BD2DE9F04F89B04FF4006019
:1035A000FDF707FE50B10820FDF703FE30B903F028
:1035B000ECFA18B103F003FBFFF78AFF03F095F86C
:1035C00008B1FFF785FF724800687E4909688842A4
:1035D0007ED96F48006844F6206108447949086044
:1035E0000820FDF7E6FD30B94FF40060FDF7E1FD7E
:1035F00008B9FFF76DFF4FF48060FDF7DAFDE8B31F
:103600005A4890F8770000EB80006F49B1F900103C
:1036100088422FDA5D48007801282BD1002508E088
:103620005248B0F8700000B2654921F81500681CD6
:10363000C5B2032DF4DB4D48B0F87A0000B2604902
:10364000C8804A4890F87700484991F878100844B3
:1036500000EB80005C49B1F90010884204DA0020D8
:103660004A4908705949087059480088401C00B2FE
:103670005749088054480088401C00E002E000B22E
:10368000514908804E48B0F906003849B1F8721027
:10369000884265DA00204F490880488088804E497A
:1036A000088048804D480078401C4C4908704448C8
:1036B000B0F904002D49B1F8721088421DDA404873
:1036C000B0F902002949B1F87210884215DA00E019
:1036D00085E32E48007880B94048007814280BD143
:1036E0004FF47A70264908804FF40070FDF761FDB1
:1036F000002801D002F01EFFABE10420FDF759FDC8
:1037000068B32248007850BB2D48B0F9040017492F
:10371000B1F87210884277DA2948B0F902001349EB
:10372000B1F8741088426FDD2548B0F900000F49E8
:10373000B1F87410884267DD284800781428DBD17E
:103740002748008830B100202549088001202549FC
:1037500008807EE12448008818B9012047E053E042
:10376000C9E043E0CA01002010020020300400201C
:103770008D0100203C0100201008014016020020AD
:10378000180200200C0C01401402002050010020FF
:10379000400100209001002088010020D00000207E
:1037A00020A1070094010020FD010020F049020043
:1037B000980100206801002078050020B80500204D
:1037C00056010020B8010020520100206C010020A9
:1037D00054010020AC010020B2010020990100201A
:1037E0007E010020800100200E0200200020F94907
:1037F00008800846008818B10220F749087028E1BF
:103800000320F549087024E1F448B0F85600002878
:1038100018DDF348407958B1F248007840B10120F2
:10382000F1490870F148B0F90000F149088005E05D
:10383000ED48007810B10020EB4908700020ED49F8
:10384000087006E1EC48B0F90400E449B1F87210E0
:1038500088420CDBE14890F87600012813D1E64855
:10386000B0F90000DD49B1F8721088420BDADE4889
:103870000078012807D1DF4800781428BFD1002044
:10388000D9490870E5E0DC48B0F90400D349B1F843
:10389000741088420CDCD848B0F90000CF49B1F868
:1038A0007410884223DDCD4890F8760001281ED19F
:1038B000D148B0F90200C949B1F87410884216DA4B
:1038C000C948007898B9CD48008880B9CC480078BC
:1038D00001280CD1C7480078142890D10120C24992
:1038E0000870C248B0F90000C1490880B1E000206A
:1038F000C0490870ADE0C048B0F90600B749B1F85A
:103900007410884220DDB848007800281CD1BA48DD
:10391000B0F90400B149B1F87210884215DAB6481E
:10392000B0F90200AD49B1F8721088420DDAB14821
:103930000078142803D14FF4C870B2490880AD480C
:103940000078401CAB49087083E0AB48B0F9040034
:10395000A249B1F87410884214DDA748B0F90200FA
:103960009E49B1F8721088420CDAA24800781428F7
:1039700002D10120A44908709E480078401C9D494E
:10398000087066E09C48B0F902009449B1F87410E0
:10399000884210DD9148C08F801C01B28F48C187DA
:1039A0000120FDF77BFA4FF48070FDF702FC98B31D
:1039B00005F02FF84DE09048B0F902008749B1F8C2
:1039C0007210884210DA8548C08F801E01B2834889
:1039D000C1870120FDF762FA4FF48070FDF7E9FB23
:1039E000D0B105F016F834E08348B0F900007B4907
:1039F000B1F87410884210DD7848808F801C00B2C6
:103A0000764988870120FDF749FA4FF48070FDF769
:103A1000D0FB08B104F0FDFF1BE07748B0F90000CF
:103A20006E49B1F87210884210DA6C48808F801E9F
:103A300000B26A4988870120FDF730FA4FF48070A0
:103A4000FDF7B7FB28B104F0E4FF02E0002069496C
:103A500008700420FDF7ADFB18B35E480088A0B1E4
:103A600061480078012810D16348B0F906005B492D
:103A7000B1F87210884208DD5948407928B93220DF
:103A8000624908800020534908805548007A48B1AF
:103A90005048008828B901204E49088032205B49EF
:103AA00008800DE05A48008850B14F48007838B976
:103AB000002048490880564908800120554908805F
:103AC0000025D8E04C48B0F9080040F21451884273
:103AD00008DD4948B0F9080040F2A461884201DAE3
:103AE000012000E000204449B1F9081040F21452CE
:103AF000914201DA012100E0002141EA40003E4903
:103B0000B1F9081040F2A462914201DD012100E008
:103B1000002140EA81003849B1F90A1040F21452FC
:103B2000914201DA012100E0002140EAC10032495E
:103B3000B1F90A1040F21452914208DD2E49B1F950
:103B40000A1040F2A462914201DA012100E0002152
:103B500040EA01102849B1F90A1040F2A4629142EA
:103B600001DD012100E0002140EA41102249B1F9C4
:103B70000C1040F21452914201DA012100E00021C0
:103B800040EA81101C49B1F90C1040F214529142E4
:103B900008DD1949B1F90C1040F2A462914201DA32
:103BA000012100E0002140EAC1101349B1F90C10D5
:103BB00040F2A462914201DD012100E0002140EACF
:103BC00001200D49B1F90E1040F21452914223DA4E
:103BD000012122E00E0200203D01002030040020DF
:103BE000EA0500206C010020500100206402002042
:103BF000C801002099010020560100201802002071
:103C000014020020160200201A0200207C0100206D
:103C10007E01002080010020002140EA4120FE4971
:103C2000B1F90E1040F21452914208DDFA49B1F98F
:103C30000E1040F2A462914201DA012100E000215D
:103C400040EA8120F449B1F90E1040F2A462914299
:103C500001DD012100E0002140EAC120EF4931F8F7
:103C600015100840002801DD012000E00020EC498B
:103C70004855681CC5B20B2DFFF624AFE848007804
:103C800050B9E6484C3890F8770000EB8000E549E1
:103C9000B1F9001088420EDA0120FDF772FA50B136
:103CA000E148007850B90020E049088048800120B0
:103CB000DD49087002E00020DB490870D8484079EF
:103CC00010B90120DA490870D7480078012803D1DB
:103CD0001020D849086003E01020D649091F086069
:103CE0000220FDF74EFAC8B1CD48407898B1D248CD
:103CF000007898B90120D0490870D0480068D049B0
:103D00000860D048C088D04908800020CF4908808A
:103D1000CF49088002E00020C74908700420FDF761
:103D200030FAF0B1BE48807858B1CA48007858B926
:103D30000120C8490870C848B0F90000C749088088
:103D400002E00020C3490870B548407A30B1C44849
:103D5000007830B90120C249087002E00020C04953
:103D600008701020FDF70DFA50B3AD48807968B1A6
:103D7000BC48007868B90120BA490870BA49081FE0
:103D800002F007FC0320B949087002E00020B549A1
:103D90000870A348C079A0B1B548007880B9012067
:103DA000B3490870B3480068B3490860B148406837
:103DB0004860091D081F02F0ECFB0220AB490870A7
:103DC00002E00020AA4908709548007A18B1012045
:103DD000AA49087034E00020A849087030E0A849DA
:103DE00091F900000978491C49B2A54A1170C11720
:103DF00000EB91718910B0EB810106D001290BD045
:103E0000022910D0032916D114E00420FDF7B9F9D6
:103E100008B100F09AFE12E00220FDF7B2F908B1F5
:103E200000F0B4FC0BE00220FDF7ABF908B1FDF7A0
:103E3000C8FC04E003E000209149087000BF00BF07
:103E4000FDF703FC04F0BBFA8E49086008460068E1
:103E50008D490968401A8D4908808A4800688A4956
:103E600008600420FDF78DF990B37648B0F904009E
:103E7000002803DD7348B0F9040003E07148B0F98D
:103E800004004042462824DA7248007808B3724998
:103E90000988724A1288891A08B210F1B40F02DC3C
:103EA00000F5B47108B2B42802DBA0F5B47108B211
:103EB0007749097861B159494C39097C41431E223F
:103EC00091FBF2F15F4A9288511A09B25D4A9180E2
:103ED00004E06148B0F90000604908800220FDF765
:103EE00050F938B35448007820B35648B0F906006A
:103EF0005549B1F90010401A002807DD5148B0F9C2
:103F000006005149B1F90010401A06E04D48B0F9D9
:103F100006004D49B1F90010081A142802DD0020EE
:103F2000454908704848008849490988084400B252
:103F30004449C8801020FDF724F9E8B349480078C7
:103F400010B94B48007810B15248007810B902F00F
:103F5000FCFA5EE04048B0F9000007F039FB4E493A
:103F6000049007F03AF9059009F05EFB07903A4893
:103F7000B0F9000007F02CFB4749049007F02DF939
:103F8000059008F043FD06904449B1F9000007F0A0
:103F90001FFB0190079907F020F940490390B1F900
:103FA000020007F015FB0190069907F016F9029040
:103FB000039907F00CF900E02BE03949049007F071
:103FC00042F9059007F030FB00B2364908803349CA
:103FD000B1F9000007F0FCFA0190069907F0FDF82E
:103FE0002E490390B1F9020007F0F2FA0190079907
:103FF00007F0F3F80290039907F097F82849049026
:1040000007F021F9059007F00FFB00B22549488021
:1040100000BF00245DE10000560100207C04002068
:10402000EA050020520100206D010020B2010020AD
:104030006C010020140C01406F0100201C010020C5
:1040400020010020CC010020BC010020B80000208D
:10405000B60000206E0100206402002066020020ED
:104060004C0100204A010020F00100207A010020CC
:104070004B010020E4010020F40100204D0100204C
:10408000BE01002040010020440100204801002022
:10409000D00000207001002035FA8E3C0A0200207A
:1040A00000002041720100209048007801287DD155
:1040B000022C7BDA8E4830F914008E4931F9141045
:1040C000C1EB400010F5FA7F01DA8B4815E0884813
:1040D00030F91400874931F91410C1EB4000B0F5F4
:1040E000FA7F02DD4FF4FA7007E0814830F91400DE
:1040F000804931F91410C1EB4000804931F81410A7
:10410000411A7F4830F81400084406B27C483C3815
:10411000C07B7043642190FBF1F007B278483C38D3
:1041200090F82300404200EB8000B84207DD74485D
:104130003C3890F82300404200EB80000FE07048CC
:104140003C3890F8230000EB8000B84206DA6C4857
:104150003C3890F8230000EB800000E0384607462A
:10416000684830F9140030446749884201DA08464B
:104170000DE0644830F91400304442F21071884276
:1041800001DD084603E05F4830F91400304400B216
:104190005C4921F81400084630F9140058493C39AC
:1041A000497E48430013089051E0FFE7504830F93A
:1041B000140000EB8000010151483438005D91FB90
:1041C000F0F8524830F81400A8EB00000FFA80F81D
:1041D000474830F914704E4830F91400404410F547
:1041E0007A5F01DA4B480DE0494830F91400404449
:1041F000B0F57A5F02DD4FF47A5003E0444830F9BD
:104200001400404400B2424921F814003F4830F9FC
:104210001400002803DD3D4830F9140003E03B485A
:1042200030F914004042B0F5207F03DD002038490A
:1042300021F81400364830F914007D2190FBF1F18B
:104240002F482A38005D4143881100B208902F4959
:1042500031F91410304A125D51430A2291FBF2F0F9
:10426000C11700EB5171A7EBE1010FB2274830F8FD
:1042700014002A4931F81410401A0FFA80F9234823
:1042800030F81400254921F81400254830F81400AE
:10429000244931F81410084448440FFA80FA2048A1
:1042A00030F814001F4921F814001D4820F814901C
:1042B0001D48005D00FB0AF040110FFA80FB0898D2
:1042C0003844A0EB0B0000B2184921F81400601C20
:1042D000C4B2032CFFF6E8AEFDF72AFDFDF7D5FCCE
:1042E000FDF7FFFC09B0BDE8F08F00006D01002074
:1042F000CC010020720100200CFEFFFFCC0000204A
:104300006C040020B2010020F0D8FFFFC0000020A4
:10431000AC01002080C1FFFFD40100209A010020E1
:10432000A0010020A6010020DA010020DE0100200B
:104330002DE9F84F0026F849F84804F039FC08B197
:10434000012606E0F44803F0B1FC10B9032004F0A4
:10435000EDF800BFF24890F8400030B1012805D0D8
:10436000022819D0032834D125E000BF00208DF8A1
:1043700000004FF44870ADF80200E849684602F0CA
:104380005BFD10B10120E7490870E54890F8400056
:10439000012800D11DE000BF66B1DF49DF4804F00D
:1043A00007FC0220DF490870DD4890F84000022831
:1043B00000D10EE000BFD94804F0A9FC40B10320B1
:1043C000D8490870D64890F84000032800D100E092
:1043D00000BF00BFD348007860B9D14890F84000D2
:1043E000002804DD0020CE4981F84000B2E701201A
:1043F000FCF7D6FE02F0D1FD10B90220FCF7D0FE8A
:1044000002F0A6FF10B90420FCF7CAFE0120FCF759
:10441000B8FE10B1C149086880470220FCF7B1FE20
:1044200008B102F0BAFDBC490868804726B9BC490A
:10443000B1F8420003F050FCB948B0F93A006421E9
:1044400090FBF1F004B2B648B0F93A0090FBF1F2FB
:1044500001FB1205284607F0BBF88246B24906F078
:10446000BCFE8046204607F0B3F88146414606F080
:104470005CFE0746AD4906F0B0FEAD490860BDE8F8
:10448000F88F2DE9F0470446A54991F8620007F03E
:10449000A8F88046204607F0A4F88146A54906F012
:1044A0009CFE0746A44906F0CEFE0646414606F0AD
:1044B00094FE054607F0D1F880B2BDE8F08770B5EC
:1044C0000025002407E002F01AFC05440A2003F04E
:1044D0009BFF601CC4B2202CF5DBC5F34F10FFF727
:1044E000D0FF0546022408E08D4890F86300604341
:1044F000A84200D903E0601CC4B2062CF4DB00BF64
:104500008E480470864890F8640060438C490880A7
:1045100070BD10B58B480088002851DD00241DE0D7
:1045200088480088B0F5C87F03D10020864941F84B
:104530002400854850F82400844931F914100844B7
:10454000814941F824000020804921F8140000210D
:1045500073482E3020F81410601CC4B2032CDFDB2B
:1045600078480088012826D1774800684FF4C87140
:1045700090FBF1F000B26A49C885734840684FF477
:10458000C87190FBF1F001B2654801866E48806801
:104590004FF4C87190FBF1F06D490988401A01B2DF
:1045A0005F48418600205E49888700215C48C187BA
:1045B0000120FCF773FC63480088401E61490880B5
:1045C0000420FCF7F6FD00287ED0624800883228DF
:1045D00010D15348C08D604908805148008E4880F2
:1045E0004F48408E88804E48808F5C4908804C48F8
:1045F000C08F488057480088002847DD00201CE015
:1046000054490988322903D10021554A42F8201023
:10461000534951F820104D4A32F910201144504AA4
:1046200042F820100021494A22F8101000223C498B
:104630002E3121F81020411CC8B20328E0DB454987
:10464000098801291CD10021464A11800121464ACE
:1046500011800221454A11703F490988304AD185AD
:104660003D494A882E490A863B498A882C494A8610
:104670003A4909882A4A918738494A882849CA8785
:1046800034490988491E334A118000BF38480088E0
:10469000012828D10020364908803148006832219D
:1046A00090FBF1F000B21E49C8852D4840683221C8
:1046B00090FBF1F001B21A48018629488068322146
:1046C00090FBF1F0224900E00DE00988401A01B2A8
:1046D0001348418600201249888700211048C1876D
:1046E0000120FCF7DBFB194800880D49C98D401AF1
:1046F00000B216490880084641880948008E081A09
:1047000000B212494880084681880548408E081A40
:1047100000B20E49888010BD280600201C0600202B
:10472000300400201E0200208988883C00002041BF
:10473000BC0000203333534000F07F45840100204B
:104740001002002016020020F805002002010020BF
:104750001C0200207C0100203A02002040020020C0
:1047600004060020820100207E0100203D0100207F
:104770008001002010B5F9484168F9488847F7489A
:104780008168F7488847FFF7C4FE10BD2DE9FE4F4A
:10479000F4480068F4490968884201D2BDE8FE8FF8
:1047A000F0480068F0490860F048007830B101280E
:1047B00013D002281BD003285FD127E002F0B6FCFB
:1047C000EA480078401CE9490870E748006841F26F
:1047D000F8110844E44908604FE002F065FCE44940
:1047E0000880E2480078401CE049087045E002F08B
:1047F00080FDDE480078401CDC490870DA4800681B
:1048000043F2B0610844D849086036E002F0AEFCDB
:10481000D8490860D648008802F061FCD548006895
:1048200002F0CCFC0290029806F0D2FED249009031
:1048300006F009FD019006F043FF80464FF000525C
:10484000CE4B08F0A3F906460022CD4B06F0DEFD64
:1048500004460022CB4B06F0DCFD824606F011FF39
:10486000C94908600020C1490870BF48006841F28A
:1048700088310844BC49086000BF00BF00BF8DE715
:1048800010B5C2480088002838DD00242FE0BF485A
:104890000088B0F57A7F03D10020BD4941F824009B
:1048A000BB4850F82400BB4931F914100844B849FA
:1048B00041F824000020B74921F81400B64921F836
:1048C0001400B248008801280FD1B14850F82400E4
:1048D0004FF47A7190FBF1F000B2AF4921F8140067
:1048E00001220F210A20FEF71FFB601CC4B2032C1B
:1048F000CDDBA6480088401EA4490880002439E08A
:10490000A44830F81400A44931F81410401A00B239
:10491000A04921F81400084630F914109F4830F9D6
:104920001400A0F54870814205DA9C4830F9140063
:10493000A0F5487012E0974830F91410974830F904
:10494000140000F54870814205DD944830F91400E8
:1049500000F5487002E08F4830F9140000B28D492C
:1049600021F81400084630F814008C4921F814008E
:10497000601CC4B2032CC3DB10BD10B5884841686D
:10498000844888478648816882488847FFF778FFCF
:1049900010BD10B5834802F022FD8248808882490C
:1049A000088080480088404200B248807D484088A6
:1049B000404200B2888010BD2DE9FF5F60260025CF
:1049C0000024002740F2FE2840F2C929DFF8DCA1CC
:1049D00002F0D2FC0020764908604860886071E0EF
:1049E000681CC5B2304602F0D4FC642003F00CFD14
:1049F000FFF7CFFF0A2003F007FD6B49B1F9000074
:104A000006F0E6FD8346404606F0EBFD5946009071
:104A100006F019FC20F0004001906349B1F9020052
:104A200006F0D6FD8346484606F0DBFD5946009069
:104A300006F009FC20F0004002905B49B1F900004B
:104A400006F0C6FD8346484606F0CBFD5946009069
:104A500006F0F9FB20F0004003905649019806F05B
:104A60006BFE2FD25449019806F05CFE2AD25149C0
:104A7000029806F061FE25D24F49029806F052FED8
:104A800020D24C49039806F057FE1BD24A4903989E
:104A900006F048FE16D2601CC4B2454A019910685F
:104AA00006F043FB42490860414A0299506806F00B
:104AB0003CFB3F4948603E4A0399906806F035FB4D
:104AC0003B4988601FB9142D01DA052C88DB052CC1
:104AD0002EDB204606F085FD8346354908685146A1
:104AE00006F07BFB5946009006F0ADFB30490860AC
:104AF000204606F076FD83462D494868514606F06B
:104B00006CFB5946009006F09EFB29494860204600
:104B100006F067FD834626498868514606F05DFB2E
:104B20005946009006F08FFB21498860012705E077
:104B30004FF07E501E4908604860886002F03EFCDD
:104B400001201E490870BDE8FF9F70B50548006848
:104B50001B490968884235D270BD00001C06002040
:104B60000201002040010020200200202402002039
:104B7000260200202802002080E6C547965BC83F39
:104B80000000F03F1AE950411401002018020020F3
:104B900010060020FC000020C60000204402002077
:104BA000280600204A0200200E01002059021B3F67
:104BB0002C0200203333333F6666A63F38020020C4
:104BC0005002002064480068644908446449086051
:104BD000FFF7DFFE6349B1F9000006F0F9FC064675
:104BE00061480168304606F0F8FA054606F01CFDFB
:104BF00000B25C490880B1F9020006F0E9FC064603
:104C000059484168304606F0E8FA054606F00CFDC2
:104C100000B254494880B1F9040006F0D9FC0646B8
:104C200051488168304606F0D8FA054606F0FCFC8B
:104C300000B24C4988804D48007801281CD1484872
:104C400000684B490860002411E00021494820F821
:104C50001410444830F81400474921F81400414822
:104C600030F81400454921F81400601CC4B2032C2C
:104C7000EBDB00203D49087041480078D0B139484D
:104C800000883C493439898E401A00B23549088081
:104C90000846418837483438C08E081A00B2314976
:104CA00048800846818833483438008F081A00B29B
:104CB0002C4988802E48006800284AD0284800687F
:104CC0002B490968401A2F49884228D22E4800688B
:104CD00080F008002C49086000241DE0214830F9CC
:104CE0001400254931F91410884205DA1D4830F8BE
:104CF0001400214921F814001A4830F914001F4902
:104D000031F91410884205DD164830F814001B49AB
:104D100021F81400601CC4B2032CDFDB19E0002072
:104D20001349086000240FE0134931F91410134AA5
:104D300032F91420881800EBD07149100AB20D49DD
:104D400021F81420601CC4B2032CEDDB0120FCF719
:104D5000A5F800BF70BD000040010020A086010042
:104D6000500200200E0100202C0200201A02002018
:104D70005402002064040020580200205E0200203B
:104D80003802002080C3C9010C0C014010B5044654
:104D9000FE490C700846007803F01DFDFC480078C1
:104DA000FA4909784840FA490870200AF74908701A
:104DB0000846007803F00FFDF5480078F3490978BC
:104DC0004840F3490870200CF04908700846007804
:104DD00003F001FDEE480078EC4909784840EC49C1
:104DE0000870200EE94908700846007803F0F3FCCB
:104DF000E7480078E54909784840E549087010BD62
:104E000010B50446E3490C700846007803F0E3FC53
:104E1000DF480078DF4909784840DD490870200AFA
:104E2000DC4908700846007803F0D5FCD8480078C3
:104E3000D84909784840D649087010BD10B50446D5
:104E4000204603F0C8FCD24800786040D049087082
:104E500010BDD1490A780978491CCF4B1970CF4948
:104E6000885C19460A780978491C1970CB49895C15
:104E700000EB012019460A780978491C1970C749C6
:104E8000895C00EB014019460A780978491C1970C1
:104E9000C249895C00EB01607047BF490A78097814
:104EA000491CBD4B1970BD49885C19460A780978C0
:104EB000491C1970B949895C00EB012188B270471F
:104EC000B54801780078401CB34A1070B348405C84
:104ED000704770B505460C462420FFF7AFFF4D2004
:104EE000FFF7ACFF3E20FFF7A9FF2046FFF7A6FF24
:104EF0002846FFF7A3FF0020A549087070BD10B534
:104F0000A3480078FFF79AFF10BD10B5044620466D
:104F100003F09DFB10BD2DE9F041A148007818B1C8
:104F2000FBF7E6FCBDE8F08130E303F03BFC05460F
:104F30009C480078632818DD9B4800789B490978D5
:104F4000884213DC9848007898490978884204DA46
:104F50008F48007868408E4908709348017800783F
:104F6000401C914A10708D48455491E08B488F4900
:104F70000978405C8649097888427CD18948007864
:104F8000C838082811D2DFE800F004112D43517F02
:104F90007F7E002407E0FFF780FF00B2844921F8FC
:104FA0001400601CC4B2082CF5DB6DE0FFF788FF2D
:104FB00080490870FFF784FF7F490870FFF749FFB9
:104FC0007E490860FFF745FF7C494860FFF765FFB1
:104FD0007B490880FFF761FF7A49088001207A4900
:104FE000087051E0002410E0FFF76AFF014677489F
:104FF0000155FFF765FF75490A310855FFF760FF56
:10500000724914310855601CC4B20A2CECDB3BE039
:10501000002408E0FFF741FF01466C48443020F8C7
:105020001410601CC4B20B2CF4DB2DE0FFF748FF1A
:105030006649083981F82600FFF742FF63490839BD
:1050400081F82700FFF73CFF6049083981F82A0002
:10505000FFF736FF5D49083981F82B00FFF730FF75
:105060005A49083981F82C00FFF72AFF57490839B7
:1050700081F8280000E008E0FFF722FF53490839D3
:1050800081F8290000E000BF00BF002045490870FA
:1050900044480078052825DA4248007804280ED1D3
:1050A000632D09DD3F48057000203F4908703849ED
:1050B00008703949087002E000203A490870394800
:1050C0000078032860D1642D0DDA36480078401C42
:1050D000344908703548057000783F2802DD3F20CC
:1050E0003249087045E26E2D4FD00ADCA5F164000C
:1050F0000A2829D2DFE800F01A299FC7D9F0EEED7F
:10510000ECEBCD2D66D008DCA5F16F000528F0D2C0
:10511000DFE800F0F8F7F6F5F400CE2D7ED0D02DC4
:105120007DD0FA2D7CD0FE2D0ED1DDE10221284666
:10513000FFF7CFFEC820FFF781FE244908394878E1
:10514000FFF77CFEFFF7DBFEE9E108212846FFF7C9
:10515000C0FE1F48008800B2FFF752FE02F02BFD90
:1051600006B23046FFF74CFE0120FCF70AF807466E
:105170000220FCF706F847EA40070420FCF701F894
:1051800047EA8007102026E0CEE115E16902002001
:105190006D0200206A0200206F0200203406002009
:1051A000680200206E0200206B0200206C020020CA
:1051B00056010020FC010020FD010020E401002038
:1051C000060200200802002071010020380400209F
:1051D0004801002077E1FBF7D4FF47EAC007082029
:1051E000FBF7CFFF47EA00163046FFF709FEEB4911
:1051F0000978EB4A127841EA4201EA4A127841EA18
:105200008201E94A127841EA4211E84A127841EAF9
:105210008211E74A127841EAC21102E05CE14EE1F4
:105220005EE1E44A127841EA422108B2FFF7E8FD64
:10523000FFF765FE73E112212846FFF74AFE0024BE
:1052400006E0DD4931F91400FFF7DAFD601CC4B255
:10525000032CF6DB002406E0D84931F91400FFF7EF
:10526000CFFD601CC4B2032CF6DB002406E0D44959
:1052700031F91400FFF7C4FD601CC4B2032CF6DB47
:10528000FFF73DFE4BE110212846FFF722FE0024E8
:1052900006E0CC4931F91400FFF7B2FD601CC4B23E
:1052A000082CF6DBFFF72BFE39E110212846FFF72B
:1052B00010FE002406E0C44931F91400FFF7A0FDF8
:1052C000601CC4B2082CF6DBFFF719FE27E168E08A
:1052D00050E039E017E0FFE710212846FFF7F9FD1D
:1052E000002406E0B94931F91400FFF789FD601C7C
:1052F000C4B2082CF6DBFFF702FE10E1CEE0C3E0FB
:10530000AEE091E066E00E212846FFF7E2FDB048EE
:105310000078FFF793FDAF480078FFF78FFDAE49A7
:105320000868FFF733FDAC494868FFF72FFDAB482D
:10533000008800B2FFF764FDA948008800B2FFF7BB
:105340005FFDFFF7DCFDEAE005212846FFF7C1FD20
:10535000A448008800B2FFF753FDA3480088B4308A
:1053600000B2FFF74DFDA1480078FFF767FDFFF79A
:10537000C6FDD4E006212846FFF7ABFD002406E079
:105380009B4931F91400FFF73BFD601CC4B2022CAD
:10539000F6DB9848B0F90000FFF732FDFFF7AFFDEC
:1053A000BDE004212846FFF794FD93480068FFF70D
:1053B000EDFCFFF7A4FDB2E003212846FFF789FDCD
:1053C0008E480078FFF73AFD0020FFF719FDFFF740
:1053D00096FDA4E007212846FFF77BFD884991F858
:1053E0002600FFF72BFD864991F82700FFF726FDE1
:1053F000834991F82A00FFF721FD814991F82B009C
:10540000FFF71CFD7E4991F82C00FFF717FD7C4942
:1054100091F82800FFF712FD794991F82900FFF76C
:105420000DFDFFF76CFD7AE01E212846FFF751FDC8
:10543000002410E072490831085DFFF7FFFC704955
:105440001231085DFFF7FAFC6D491C31085DFFF76A
:10545000F5FC601CC4B20A2CECDBFFF750FD5EE0EB
:1054600016212846FFF735FD002408E064494C3139
:1054700031F8141008B2FFF7C3FC601CC4B20B2C47
:10548000F4DBFFF73CFD4AE002212846FFF721FD4F
:105490000020FFF7B5FCFFF732FD40E00821284669
:1054A000FFF717FD002405E0601CC0B2FFF7C6FC43
:1054B000601CC4B2082CF7DBFFF721FD2FE00120B0
:1054C000FBF721FD2BE04FF4C8704E4908804FF4E4
:1054D0007A704D49088022E001204C4908701EE096
:1054E0000020FBF7DBFC1AE008212846FFF7F1FC5F
:1054F0004748B0F90000FFF783FC4648B0F90000C8
:10550000FFF77EFC4448B0F90000FFF779FC434800
:10551000B0F90000FFF774FCFFF7F1FC00BF00BF1B
:1055200000203F49087024E0242D04D03C2D15D0E4
:105530004D2D1DD108E03A48007820B93848007850
:10554000401C3749087013E035480078012804D121
:1055500033480078401C3249087009E03048007830
:10556000022804D12E480078401C2D49087000BF45
:1055700000BF2B48007848B9232D02D1FBF7B8F9BA
:1055800004E0522D02D1012002F0FBFF03F0F3F8FA
:1055900000287FF4CAAC00BFC4E400006D01002005
:1055A0006F0100206E010020500100204A01002000
:1055B0004B0100204C01002008010020C000002009
:1055C0000E01002026010020580500205601002071
:1055D000FC010020FD010020E40100200602002063
:1055E00008020020FE0100200202002071010020BC
:1055F000CC000020640200201C010020CA01002011
:105600003004002016020020180200201A02002098
:10561000C0010020C2010020C4010020C6010020FA
:105620006E02002044F25061884201DDA0EB41008F
:10563000F649884202DA48F6A0410844704710B59E
:10564000F3480068F3490968441A2046FFF7EAFF67
:105650000446002C01DD204600E0604242F2107159
:10566000884201DD012010BD0020FCE701460868EA
:105670007047016070472DE9F04F95B080468A462B
:1056800091469B46D8F80410AAEB010005F0A0FF54
:105690000446D9F8001005F0D6FDC8F81000D8F877
:1056A0000810D8F8100005F092FD044606F008F83E
:1056B000CDE90C01D9F8000006F002F806460F46C5
:1056C000D54991F8AA0005F08CFF019005F0F8FF8C
:1056D0000446D24AD24B05F09CFE02460B46CDE969
:1056E00002010020CF4905F004FF32463B46CDE9D8
:1056F000040105F0E8FDCDE90801D9F8000005F046
:10570000DFFFCDE90601DDE9082305F0F2FECDE972
:105710000A01DDE90C2305F07CFECDE91001D8F883
:10572000080005F0CDFFCDE90E01DDE9102305F0FD
:10573000CAFDCDE9120105F0D9FFC8F81000C8F87C
:1057400004A0D8F81000C8F80800D8F81010DBF84A
:10575000080005F042FD044605F066FF15B0BDE8FF
:10576000F08F2DE9F04704460E4617461D46304699
:1057700005F02EFF8246696805F02FFD81463968E5
:1057800005F02BFD8046216805F0CFFC2060E8681D
:1057900080F000484046216805F0CEFF04D2E8685A
:1057A00080F00040206006E0E968206805F0C4FF52
:1057B00001D2E8682060206805F036FFBDE8F08778
:1057C0002DE9F04180460C461546204605F000FFC5
:1057D0000746296805F001FD064605F025FFBDE8EE
:1057E000F08148F6A041884200DD401A002802DA24
:1057F00048F6A041084470472DE9F84F84490968EC
:10580000844A1268881AFFF70DFF002807DD8049D7
:105810000968804A1268881AFFF704FF07E07C498C
:1058200009687C4A1268881AFFF7FCFE404241F280
:105830009411884241DA76490968764A1268881AD2
:1058400005F0C6FE0446784905F0C7FC009077498C
:10585000086805F0DCFE04460D46009805F030FFB0
:10586000804607F089FE064622462B4605F0D1FD0C
:10587000824605F006FF00B26D4908800846B0F97F
:1058800000006C49884201DA08460AE06848B0F92D
:10589000001040F6B830814200DD02E06448B0F903
:1058A00000005B49096808446349086008460068CD
:1058B000FFF797FF6049086003E0554800685E49BC
:1058C0000860BDE8F88F2DE9FC470546FFF794FF17
:1058D0005949096842F22832501A05F079FE074604
:1058E000514905F07AFC0646304607F08FF80190E2
:1058F000304607F099FE0090002482E04F4931F9CC
:10590000140005F065FE8146284605F061FE8246DA
:105910005DF8241005F061FC8046494605F057FC0F
:10592000074605F081FE00B2454921F814000846FB
:1059300030F9140010F57A7F01DA42480BE0404854
:1059400030F91400B0F57A7F02DD4FF47A7002E08E
:105950003B4830F914003A4921F814000A4632F95C
:10596000141004EB8402384B03EB8200374AFFF734
:1059700027FF0746324A32F9141004EB8402324BF7
:1059800003EB8200314B324AFFF7EBFE07442C4A0F
:1059900032F9141004EB84022B4B03EB82002B4BE7
:1059A0002B4AFFF768FE384400B22A4921F8140058
:1059B000084630F914001F49884201DA08460BE016
:1059C000244830F9140040F6B831884201DD084619
:1059D00002E0204830F914001E4921F8140004EBBD
:1059E0008401194A02EB8100FFF740FE074604EBF1
:1059F0008401194A02EB81003946FFF73AFE601C28
:105A0000C4B2022CFFF67AAFBDE8FC87B0B9FFFF45
:105A1000AC020020B002002030040020182D4454B5
:105A2000FB2119400000F03FD3023739B8020020B3
:105A3000B402002048F4FFFFE402002070020020BE
:105A40009802002018FCFFFF04070020A406002095
:105A5000900200200A020020DC06002070B50446F7
:105A60000D468DB1FE480068B4EB500F01D22046C0
:105A700002E0FB480068400804B2002C01DD20462B
:105A800000E00020044613E0F5480068844201D29B
:105A9000204601E0F248006804B2F248B0F8AC00D9
:105AA000A04201DA204602E0EE48B0F8AC0004B2B1
:105AB000ED48B0F90000844210DDEC480168EC4884
:105AC00005F08BFB064605F0AFFDE7490988084461
:105AD00000B2E54908800846B0F90040204670BD94
